:03000000020006F5
:0300710002000387
:030003000200E018
:2000740075890122AE82AF838E048F051EBEFF011FEC4D6013758CF8758A30C28DD28C3017
:200094008DFDC28CC28D80E022AE82AF838E048F051EBEFF011FEC4D6013758CF8758A304C
:2000B400C28DD28C308DFDC28CC28D80E022AE82AF838E048F051EBEFF011FEC4D70F32265
:2000D400AF82C2C18FC110C10280FB2275A15575A1AA75B98675A10075A10075A10075A161
:2000F4000075A10075A10075A10075A10075A10075A10075A10075A10075A10075A100759B
:16011400A10075A10012012A12007412025E12025F12026680FB81
:0F012A005392EF439310C29422D29422C2942294
:12005F00750D00750E00750F0075100075110075120074
:2001390085823685833785F03885350C85360985370A85380BE53524BF40317B00C3EB9539
:20015900355024EB2400F9E43400FAEB2536F8E43537FCAF3888828C838FF012230CF889F8
:20017900828A83F00B80D68535DD802C7F00EF2400FDE43400FEEF2536FAE43537FBAC382B
:200199008A828B838CF012230CFA8D828E83F00FBF400040D975DD4075110075DC0022852E
:2001B900823685833785F03885350C85360985370A85380BE53524BF40317B00C3EB953509
:2001D9005024EB2400F9E43400FAEB2536F8E43537FCAF3888828C838FF012230CF889822B
:2001F9008A83F00B80D68535DD802C7F00EF2400FDE43400FEEF2536FAE43537FBAC388AA3
:20021900828B838CF012230CFA8D828E83F00FBF400040D975DD4075110175DC4022858274
:200239000985830A85F00B85350C75DC022285820985830A85F00B85350C75DC822275DD20
:200259000075DC03222275E22943D1012210DA0280012230D81A75E30075DD4075DC02C286
:20027900D9C2D875EC0075ED00750F007510002220D9012275DC0AE5D9540F60028031AEAB
:20029900D95306307F00BE2008BF00051204208041AED95306307F00BE3008BF0005120266
:2002B900EE802FE5D95430600280271203568022AED953060F7F00BE0118BF0015AED9533D
:2002D90006307F00BE2008BF00051209148003120913C2D9221201337F00EF246CFDE434B0
:2002F90001FEEF2400F582E43400F583E0FC8D828E83F00FBF080040E1900000E0FF530720
:2003190060E4C403CFC40354076FCF5407CF6FCF30E20244F8FEBF0002800ABF010280083F
:20033900BF020B80060204C302051702053375354090004075F0001202370202577401B542
:2003590012028003020408E50C24BF40437F00C3EF950C5022EF2509FCE4350AFDAE0BEF63
:200379002400F582E43400F583E0FB8C828D838EF01222D40F80D8E50D6006121778750DD8
:20039900007512027535009000D675F0000201B87F00EF2509FCE4350AFDAE0BEF2400F512
:2003B90082E43400F583E08C828D838EF01222D40FBF400040DCE5DC30E71A74402509FD93
:2003D900E4350AFEAF0BE50C24C0F5358D828E838FF002023774402509FDE4350AFEAF0B96
:2003F900E50C24C0F5358D828E838FF00202477402B5121275120075354090004075F00006
:20041900120237020136227401B5120280030204A1E50C24BF4039750C00751202753500B4
:2004390090004075F000120247E5116011753500850982850A83850BF0120139800F7535DB
:2004590000850982850A83850BF01201B8020136E511601A74402509FDE4350AFEAF0BE5CE
:200479000C24C0F5358D828E838FF002013974402509FDE4350AFEAF0BE50C24C0F5358D28
:20049900828E838FF00201B87402B5121CE50F6006850FE3750F0075120075354090004087
:2004B90075F0001202370201362290016DE0FF24F3500122EF240A83F582EF241183F5837B
:2004D900E473F5F816FB16FE0104070A0D10130404050405040505050505050502053402DA
:2004F90005A80205ED0206320206480208AE0208C10208D70208ED02090202091222900180
:200519006DE0FFBF0102800EBF09028006BF0A0902091502091B02095A222290016CE0FF39
:2005390053071FBF0002800ABF0102801EBF024D80329000D6E4F09000D7F07535029000F1
:20055900D675F0001201B8751201229000D6E4F09000D7F07535029000D675F0001201B8FF
:20057900751201229000D6E4F09000D7F07535029000D675F0001201B87512012275354051
:2005990090004075F00012023775120002025790016CE0FF53071FBF00028005BF022280E2
:2005B900107535009000D675F0001201B8751202227535009000D675F0001201B87512025E
:2005D9002275354090004075F00012023712025775120022900000E0FF53071FBF00028039
:2005F90005BF022280107535009000D675F0001201B8751202227535009000D675F00012F8
:2006190001B87512022275354090004075F0001202371202577512002290016EE0F50F7587
:2006390035009000D675F0001201B875120222900173E0FE7F00900172E07C002FFFEC3E13
:20065900FE90016FE0FDBD01028014BD02028055BD0303020704BD220302084E02089BC34A
:20067900EF9412EE940040047F127E007C007D00C3EC9FED9E5020EC24D6FAED3400FBECCD
:200699002464F582ED3423F583E4938A828B83F00CBC00DC0D80D97512018F359000D675D4
:2006B900F0000201B8C3EF9422EE940040047F227E007C007D00C3EC9FED9E5020EC24D601
:2006D900FAED3400FBEC24A9F582ED3423F583E4938A828B83F00CBC00DC0D80D9751201EC
:2006F9008F359000D675F0000201B890016EE0FD24FC500302083BED2D2D90071773020792
:20071900230207690207AF0207F5C3EF9404EE940040047F047E007C007D00C3EC9FED9E92
:200739005020EC24D6FAED3400FBEC24CBF582ED3423F583E4938A828B83F00CBC00DC0DF4
:2007590080D97512018F359000D675F0000201B8C3EF9420EE940040047F207E007C007D13
:2007790000C3EC9FED9E5020EC24D6FAED3400FBEC24CFF582ED3423F583E4938A828B8378
:20079900F00CBC00DC0D80D97512018F359000D675F0000201B8C3EF9418EE940040047FD1
:2007B900187E007C007D00C3EC9FED9E5020EC24D6FAED3400FBEC24EFF582ED3423F5831A
:2007D900E4938A828B83F00CBC00DC0D80D97512018F359000D675F0000201B8C3EF941A43
:2007F900EE940040047F1A7E007C007D00C3EC9FED9E5020EC24D6FAED3400FBEC2407F5B9
:2008190082ED3424F583E4938A828B83F00CBC00DC0D80D97512018F359000D675F00002DC
:2008390001B875354090004075F0001202371202577512002290016EE0600122C3EF94338D
:20085900EE940040047F337E007C007D00C3EC9FED9E5020EC24D6FAED3400FBEC2476F5D0
:2008790082ED3423F583E4938A828B83F00CBC00DC0D80D97512018F359000D675F000027D
:2008990001B875354090004075F0001202371202577512002275354090004075F0001202D5
:2008B90037120257751200229000D6E510F07535019000D675F0001201B87512012290010D
:2008D9006EE0F5107535009000D675F0001201B8751202229000D6E4F07535019000D67501
:2008F900F0001201B8751201227535009000D675F0001201B87512022222222275120002A0
:20091900025790016EE0FFBF0102800ABF02028005BF042C8015750D01751201900172E081
:20093900F53590004075F000020247750D01751201900172E0F53590004075F0000202475C
:1009590022751201850E359000D675F0000201B896
:202364001201000200000040484302000100010203010600FF0901A101150026FF00750807
:20238400850195070900B20201850295870900B202018503957F0900B202018504953F0938
:2023A40000B20201C009022200010100C032090400000103000000092101010001223300F0
:2023C400070581030800010403090420035600690064006900650075006B00680069006522
:2023E400006E002E006F00720067001803560044004B0020004B0049005400200031002E6E
:202404000030001A03430048003500350078002D003100390031003000320033006D63755C
:1224240050726F672076312E3020623138313233310037
:20096900AF8275FC00EF24F650030209C5EF240A83F582EF240E83F583E473C5989DA2A7D3
:20098900ACB1B6BBC00909090909090909090975FB06802B75FB0C802675FB18802175FB8A
:2009A90030801C75FB60801775FBF0801275FBFE800D75FBFE800875FBFE800375FBFE7544
:0D09C900FA60228582F930FBFD85F982225B
:2009D600AE82AF83758220C007C0061209CCD006D0078F82C007C0061209CCD006D0078EA7
:2009F600821209CC7582000209CCAE82AF83758220C007C0061209CCD006D0078F82C00738
:200A1600C0061209CCD006D0078E821209CC7582000209CCAE82AF83758228C007C0061281
:200A360009CCD006D0078F82C007C0061209CCD006D0078E821209CC7582000209CCAE82F7
:200A5600AF837582A0C007C0061209CCD006D0078F82C007C0061209CCD006D0078E821242
:200A760009CC7582000209CCAE82AF8374FFB5150122758240C007C0061209CCD006D007A3
:200A96008F058D82C007C006C0051209CCD005D006D0078E82C006C0051209CCD005D006B5
:200AB600851582C006C0051209CCD005D0067F00758220C007C006C0051209CCD0058D8234
:200AD600C0051209CCD005D0068E82C006C0051209CC7582001209CCAC82D005D006D00799
:200AF600ECB51501220FBF320040C522AE82AF837582C0C007C0061209CCD006D0078F8295
:200B1600C007C0061209CCD006D0078E821209CC8516821209CC90000A020078AD82AE832F
:200B3600AFF07C007B00C3EB9535501FEB2DF8E43EF98F02888289838AF012230CF8B8FFE6
:200B56000280038C82220B8B0480DB7582FF22AE82AF837D008D037C00C3EB951AEC951BD9
:200B76004003020C0D8D037C00EB30E032758248C007C006C005C004C0031209CC758200D2
:200B96001209CCD003D0047535027536008B828C831223281209CCD005D006D00780307553
:200BB6008240C007C006C005C004C0031209CC7582001209CCD003D0047535027536008B36
:200BD600828C831223281209CCD005D006D007ED2517FAE43518FBAC198A828B838CF012EC
:200BF600230CF582C007C006C0051209CCD005D006D0070D020B6B75824CC007C00612090E
:200C1600CCD006D007EFC313F582C007C0061209CCD006D0078E04EFC313CC13CC8C82C018
:200C360007C0061209CC7582001209CCD006D007851A358517828518838519F0C007C00632
:200C5600120B32AD82D006D007BDFF03020CE27C00900001C007C006C005C004120078D027
:200C760004D005D006D0078D027B00EA30E02E8A008B01E82EF8E93F8882C313C58213C55B
:200C960082F583C007C006C005C004120A2AA982D004D005D006D007B9FF378028EA2EFABE
:200CB600EB3F8A82C313C58213C582F583C007C006C005C004120A00AB82D004D005D0061B
:130CD600D007BBFF0D0CBC0A0040862290000A020078227D
:200CE900AF824393207E00EF30E704D2958002C295900001C007C0061200C2D29790000110
:200D09001200C2D006D007C2978F05ED2DFF0EBE080040D39000010200C2AF827E00D295F1
:200D29005393DF7D008E04EC2CFED297900001C007C006C0051200C2D005D006D007309559
:200D490003430601C297900001C007C006C0051200C2D005D006D0070DBD080040C74393FC
:200D690020EF6004D2958002C295900002C0061200C2D2979000011200C2C29790000112C1
:200D890000C2D0068E8222D2B2C295C29743932043938090000A12009D439704C2B29000D5
:200DA9000A12009DD2B290000A12009DC2B290000A12009DD2B290000A12009DC2B2900016
:200DC9000A12009DD2B290001E12009DC2B290002812009DD2B290001E12009DC2B29000B0
:200DE9001412009DD2B290000A12009DC2B290000A12009DD2B290001412009DC2B29000C2
:200E09000A12009DD2B290001412009DC2B290000A12009D75825A120CE97582A5120CE981
:200E2900758203120CE990000A12009D758200120CE9758200120CE975820B120CE9758263
:200E490001120D23AF829000D6EFF0758200120CE9758200120CE975820C120CE9758201D2
:200E6900120D23AF829000D7EFF0758200120CE9758200120CE975824C120CE97582011260
:200E89000D23AF829000D8EFF022D2B2C295C29743932043938090000A12009D439704C216
:200EA900B290000A12009DD2B290000A12009DC2B290000A12009DD2B290000A12009DC215
:200EC900B290000A12009DD2B290001E12009DC2B290002812009DD2B290001E12009DC2AF
:200EE900B290001412009DD2B290000A12009DC2B290000A12009DD2B290001412009DC2C1
:200F0900B290000A12009DD2B290001412009DC2B290000A12009D75825A120CE97582A545
:200F2900120CE9758203120CE990000A02009D900042E0FF7E00C3EE9F50268E047D0074EF
:200F4900032CFCE43DFDEC2440F582ED3400F583E0F582C007C006120CE9D006D0070E80B9
:200F6900D522900042E0FF900043E0F51C7D008F037C00EB24FFF9EC34FFFA8D007E00C383
:200F8900E899EE64808AF063F08095F05029ED24D6FAE43400FE758200C007C006C005C0AA
:200FA90002120D23A982D002D005D006D0078A828E83E9F00D80B81BBBFF011CEB24D6FB58
:200FC900EC3400FC851C82C004C003120D23AF82D003D0048B828C83EFF022900042E060F9
:200FE90004D2958002C295900043E06004D2978002C297900044E06003D2B222C2B22253A3
:2010090093DFD29553937FD2975397FBD2B222900042E0FF900043E0FE7D008F037C001B8D
:20102900BBFF011C8D017A00C3E99BEA64808CF063F08095F05065740429FBE43AFCEB2465
:2010490040F582EC3400F583E0F582C007C006C005120CE9D005D006D007C2957C00C3EC84
:201069009E5019900001C007C006C005C0041200C2D004D005D006D0070C80E2900001C0D0
:2010890007C006C0051200C2D2979000011200C2D005D006D007C2970D021024740429F95B
:2010A900E43AFAE92440F582EA3400F583E0F582C006120CE9D006C2957F00C3EF9E501134
:2010C900900001C007C0061200C2D006D0070F80EAD2959000011200C2D297900001120017
:0510E900C2C2972222A3
:2010EE000000000000220200C2D297439080439280439380D295439020439220439320222E
:20110E00AF82D29753927F439380D2955392DF4393208F1D22AF825392DF4393207E00EF26
:20112E0030E004D2958002C295C007C0061210EED006D007C297EFC313FFD2970EBE0800A9
:20114E0040DD227F004390204392204393207E00C297C007C0061210EED006D007D297EF6C
:20116E00A29513FF0EBE080040E68F8222439020439220439320C29790006412009DD297A8
:20118E0022AD82AE83AFF0439020439220439320C297C007C006C0051210EED2979000018D
:2011AE00E4F5F01210F45392DF439320900006E4F5F01210F4C295900001E4F5F01210F44C
:2011CE00C2971210EED297900001E4F5F01210F4C2971210EED297900001E4F5F01210F47D
:2011EE00C2971210EED297900001E4F5F01210F4C2971210EED297900001E4F5F01210F45D
:20120E00900006E4F5F01210F4D005D006D0074390204392204393207C017A007B00C29720
:20122E00C007C006C005C004C003C0021210EED297900001E4F5F01210F4D002D003D004A3
:20124E00D005D006D0073095047C00800E0ABA00010BC3EA9450EB94C340C3EC600E8D821C
:20126E008E838FF0E41222D475820022900006E4F5F0C007C006C0051210F4121151AC8262
:20128E00900006E4F5F0C0041210F4C2971210EED297900001E4F5F01210F4D004D005D04C
:2012AE0006D0078D828E838FF074011222D48C8222AF82439020439220439320C2979000FF
:2012CE0001E4F5F0C0071210F4D297900001E4F5F01210F45392DF439320900006E4F5F067
:2012EE001210F4D295900001E4F5F01210F4C297900001E4F5F01210F4D297900001E4F557
:20130E00F01210F4C297900001E4F5F01210F4D297900001E4F5F01210F4900006E4F5F0B8
:20132E001210F4D0078F82121123900006E4F5F01210F4C297900001E4F5F01210F4D297B4
:20134E00900001E4F5F01210F443902043922043932022439020439220439320C297900048
:20136E0001E4F5F01210F4D297900001E4F5F01210F45392DF439320900006E4F5F012106B
:20138E00F4C295900001E4F5F01210F4C297900001E4F5F01210F4D297900001E4F5F012E6
:2013AE0010F4D295C297900001E4F5F01210F4D297900001E4F5F01210F4900006E4F5F0B3
:2013CE001210F4121151AF82900006E4F5F0C0071210F4C297900001E4F5F01210F4D297D6
:2013EE00900001E4F5F01210F4D0078F8222AF82439020439220439320C297900001E4F593
:20140E00F0C0071210F4D297900001E4F5F01210F45392DF439320900006E4F5F01210F4E9
:20142E00D295900001E4F5F01210F4C297900001E4F5F01210F4D297900001E4F5F0121019
:20144E00F4C295C297900001E4F5F01210F4D297900001E4F5F01210F4900006E4F5F01220
:20146E0010F4C297900001E4F5F01210F4D297900001E4F5F01210F4C297900001E4F5F005
:20148E001210F4D297900001E4F5F01210F4900006E4F5F01210F4D0078F821211234390D9
:2014AE0020439220439320900006E4F5F01210F47F007D007E00C297900001E4F5F0C007AA
:2014CE00C006C0051210F4D297900001E4F5F01210F4D005D006D0073095047F01800E0D1E
:2014EE00BD00010EC3ED9450EE94C340C9900006E4F5F0C0071210F4C297900001E4F5F041
:20150E001210F4D297900001E4F5F01210F4D0074390204392204393208F8222AC82AD8388
:20152E00AEF0FF851D82C007C006C005C0041212BF7582071213FCD004D005D006D007C0AE
:20154E0007C006C005C004121361E582D004D005D006D00720E1E8C007C006C005C00412D3
:20156E001361E582D004D005D006D00730E0E890002275F040C007C006C005C00412118F15
:20158E00AB82D004D005D006D007E5227003F58222BB0D028004758200228D82C007C006A4
:2015AE00C005C0041213FCD004D005D006D007C007C006C005C004121361E582D004D00571
:2015CE00D006D00720E1E88C821213FC121361E58220E1F8851E821213FC121361E58220FF
:2015EE00E1F87F00C3EF951E501FEF251FFCE43520FDAE218C828D838EF012230CF582C069
:20160E00071213FCD0070F80DB121361E58230E0F890002275F04012118FAF82E5227003AA
:20162E00F58222BF0D0280047582002275820122AC82AD83AEF0FF851D82C007C006C0050D
:20164E00C0041212BF7582061213FCD004D005D006D007C007C006C005C004121361E5825E
:20166E00D004D005D006D00720E1E8C007C006C005C004121361E582D004D005D006D007C4
:20168E0030E0E890002775F040C007C006C005C00412118FAB82D004D005D006D007E52791
:2016AE007003F58222BB0D028004758200228D82C007C006C005C0041213FCD004D005D0EA
:2016CE0006D007C007C006C005C004121361E582D004D005D006D00720E1E88C821213FCAE
:2016EE00121361E58220E1F88523821213FC121361E58220E1F8121361E58230E0F8900040
:20170E002775F04012118FAF82E5277003F58222BF0D028004758200227F00C3EF95235050
:20172E0045C007121361E582D00730E0F4EF2524FCE43525FDAE2690002775F040C007C0A1
:20174E0006C005C00412118FAB82D004D005D006D0078C828D838EF0EB1222D4E5277003A9
:0A176E00F582220F80B5758201227A
:20177800900040E0FFBF0102800DBF0203021B83BF040302202F227402B5130280030218D9
:2017980028900045E0FF7E008F2B8E288E298E2A900044E0FF7E008E048F05E4FE2528F57D
:2017B80028EE3529F529ED352AF52AEC352BF52B900043E0FF7E007D008D048E058F06E45E
:2017D8002528F528EE3529F529ED352AF52AEC352BF52B900042E0FFE4FEFDFCEF2528F589
:2017F80028EE3529F529ED352AF52AEC352BF52B900046E0F5237524D67525008E26852830
:2018180082852983852AF0E52B12163E750E8022900041E0FFBF0800500122EF24F0500185
:2018380022EF24F8FF240A83F582EF240C83F583E47313BBAAAEAAD07C5A1A1922192218AD
:2018580018187E007F00EE24D6F582EF3400F583E4F00EBE00010FC3EE9408EF940040E6A3
:20187800750E08227E007F00900047E0FD7C00C3EE9DEF9C503EEE24D6FCEF3400FD740295
:201898002EFAE43FFBEA2440F582EB3400F583E0F582C007C006C005C0041209CCAB82D03D
:2018B80004D005D006D0078C828D83EBF00EBE00B70F80B4750E0822900043E0FF24F950FF
:2018D8000302197EEF2F2F9018E37302197E0218F802191002192602193C021952021968AB
:2018F800900042E07009758201120969021992758203120969021992900042E07008758230
:20191800021209698074758204120969806C900042E07008758203120969805E7582051236
:2019380009698056900042E0700875820412096980487582061209698040900042E070086B
:201958007582051209698032758207120969802A900042E07008758206120969801C7582D3
:20197800081209698014900042E070087582071209698006758209120969900042E0600760
:20199800751301D2B28005751300C2B25396FB439704750E082275FA005396FB5397FB7585
:2019B8000E0022900043E0FE7F00900042E0FD7C002FF52CEC3EF52D7E007F00EE24D6FC07
:2019D800EF3400FDEE252CF582EF352DF583C007C006C005C004120A54AB82D004D005D024
:2019F80006D0078C828D83EBF00EBE00010FC3EE9480EF940040C5750E8022E5136003024E
:201A18001B2B900044E0FF7E008E2B8F2A8E288E29900043E0FF7E007D008D048E058F06F2
:201A3800E42528F528EE3529F529ED352AF52AEC352BF52B900042E0FFE4FEFDFCEF252837
:201A5800F528EE3529F529ED352AF52AEC352BF52BC313F52BE52A13F52AE52913F529E5B5
:201A78002813F52885282C85292D852A28852B298E2A8E2BE528F52E601875824D1209CC4E
:201A98007582001209CC852E821209CC7582001209CC7E007F00EE2EFCEF33FDEC24D6FA42
:201AB800ED3400FBEE252CF582EF352DF583C007C006C005C004C003C002120A00A982D0C1
:201AD80002D003D004D005D006D0078A828B83E9F00CBC00010DEC24D6FCED3400FDEE25E7
:201AF8002CF582EF352DF583C007C006C005C004120A2AAB82D004D005D006D0078C828DE8
:201B180083EBF00EBE00010FC3EE9440EF940040858054900043E0FE7F00900042E0FD7C77
:201B3800002FF52CEC3EF52D7E007F00EE24D6FCEF3400FDEE252CF582EF352DF583C007AA
:201B5800C006C005C0041209D6AB82D004D005D006D0078C828D83EBF00EBE00010FC3EE24
:201B78009480EF940040C5750E80227402B513028003021C2D900045E0FF7E008F2B8E28DC
:201B98008E298E2A900044E0FF7E008E048F05E4FE2528F528EE3529F529ED352AF52AEC5A
:201BB800352BF52B900043E0FF7E007D008D048E058F06E42528F528EE3529F529ED352A23
:201BD800F52AEC352BF52B900042E0FFE4FEFDFCEF2528F528EE3529F529ED352AF52AECBC
:201BF800352BF52B900046E0F51E751F477520008E21852882852983852AF0E52B12152A05
:201C1800E58260089000D67401F080059000D6E4F0750E0022900044E0FF7E0074012FF5E4
:201C38002FE43EF530900046E0605A900042E0FE7F00900041E0FD7C002FF52CEC3EF52DB1
:201C58007E007F00900045E0FD7C00C3EE9DEF9C400122EE252CFCEF352DFD74082EFAE4F4
:201C78003FFBEA2440F582EB3400F583E0F5168C828D83C007C006120B02D006D0070EBE88
:201C980000C20F80BF7401B5135A900042E0FE7F00900041E0FD7C002FF52CEC3EF52D7E12
:201CB800007F00900045E0FD7C00C3EE9DEF9C400122EE252CFCEF352DFD74082EFAE43FD3
:201CD800FBEA2440F582EB3400F583E0F5158C828D83C007C006120A7ED006D0070EBE00ED
:201CF800C20F80BFC37480952FE495305003021D96900042E0FE7F00900041E07C002FF510
:201D18002CEC3EF52D900045E0FF7E00852F358530368F828E831222ABAE828E317E007F40
:201D380000AC317D00C3EE9CEF9D400122852F358530368E828F83C007C0061222EFAC8221
:201D5800AD83D006D007EC252CF582ED352DF58374082CFCE43DFDEC2440FCED3400FD8C5B
:201D7800178D18751900852F1A85301BC007C006120B65D006D0070EBE00A60F80A3900073
:201D980045E0FFBF80028003021ED3900043E0FF7E008E2B8F2A8E288E29900042E0FF7E12
:201DB800007D008D048E058F06E42528F528EE3529F529ED352AF52AEC352BF52B90004175
:201DD800E0FFE4FEFDFCEF2528F528EE3529F529ED352AF52AEC352BF52BC313F52BE52A92
:201DF80013F52AE52913F529E52813F52885282C85292DE52AF52E601875824D1209CC751F
:201E180082001209CC852E821209CC7582001209CC7E007F00EE30E02B758248C007C00655
:201E38001209CC7582001209CCD006D0078E04EFC313CC13CC8C82C007C0061209CCD006BE
:201E5800D0078029758240C007C0061209CC7582001209CCD006D0078E04EFC313CC13CCB2
:201E78008C82C007C0061209CCD006D00774082EFCE43FFDEC2440F582ED3400F583E0F520
:201E980082C007C0061209CCD006D0070EBE00010FC3EE9480EF94005003021E2D75358099
:201EB80090004875F000120B3285823374FFB53302800475320022753201227E007F00EEE5
:201ED80030E02E758248C007C0061209CC7582001209CCD006D0078E04EFC313CC13CC74F8
:201EF800402CF582C007C0061209CCD006D007802C758240C007C0061209CC75820012095D
:201F1800CCD006D0078E04EFC313CC13CC74402CF582C007C0061209CCD006D00774082E0C
:201F3800FCE43FFDEC2440F582ED3400F583E0F582C007C0061209CCD006D0070EBE0001C8
:201F58000FC3EE9480EF94005003021ED775824C1209CC852D821209CC852C821209CC75F4
:201F780082001209CCE532601975358090004875F000120B32858233AF3374802FF53375BE
:201F98003200E53260030220297E007F00900001C007C006120078D006D007AC337D00EC98
:201FB80030E02E7535027536008C828D83C007C006122328AA82AB83EA252CF582EB352D13
:201FD800F583120A2AAB82D006D007BBFF02802F227535027536008C828D83C007C00612B0
:201FF8002328AC82AD83EC252CF582ED352DF583120A00AD82D006D007BDFF028001220E3E
:20201800BE00010FC3EE940AEF94005003021FA52290000A020078900041E0FFBF010280C7
:2020380061BF90030220DBBF91030220E2BF92030220E9BF93030220F0BF94030220F7BF8D
:202058009503020FE4BF9603021018BFC003022101BFC1030210F7BFC20302117BBFC30390
:2020780002210DBFC40302211BBFC503022128BFC60302214DBFC90302216BBFCA030222C1
:202098000B227E007F00EE24D6FCEF3400FDEE2EFAEF33FB74022AFAE43BFBEA2407F58287
:2020B800EB3424F583E4938C828D83F00EBE00010FC3EE940CEF940040CC9000E2E4F07551
:2020D8000E4022120D90750E4022121008750E0022120F38750E0022120F6B750E40221294
:2020F8000E93750E0022020FE4751302900042E0F58202110E121361AF829000D6EFF07548
:202118000E4022900042E0F5821212BF750E002290003475F04012118FAF829000D7EFF0F4
:20213800E53460089000D67401F080059000D6E4F0750E4022900042E0F5821213FCE582E6
:2021580060089000D67401F080059000D6E4F0750E4022900045E0FF7E008F2B8E288E2937
:202178008E2A900044E0FF7E008E048F05E4FE2528F528EE3529F529ED352AF52AEC352BCB
:20219800F52B900043E0FF7E007D008D048E058F06E42528F528EE3529F529ED352AF52A7E
:2021B800EC352BF52B900042E0FFE4FEFDFCEF2528F528EE3529F529ED352AF52AEC352B95
:2021D800F52B900046E0F5237524D77525008E26852882852983852AF0E52B12163EE5825F
:2021F80060089000D67401F080059000D6E4F0750E4022900045E0FF7E008F2B8E288E2997
:202218008E2A900044E0FF7E008E048F05E4FE2528F528EE3529F529ED352AF52AEC352B2A
:20223800F52B900043E0FF7E007D008D048E058F06E42528F528EE3529F529ED352AF52ADD
:20225800EC352BF52B900042E0FFE4FEFDFCEF2528F528EE3529F529ED352AF52AEC352BF4
:20227800F52B900046E0F51E751F477520008E21852882852983852AF0E52B12152AE58277
:1322980060089000D67401F080059000D6E4F0750E40225C
:2022AB007A10E4FBFCE58225E0F582E58333F583EB33FBEC33FCEB9535F5F0EC95364006ED
:0922CB00FCABF0438201DADD22D4
:06003500E478FFF6D8FD9F
:200013007900E94400601B7A00902436787475A001E493F2A308B8000205A0D9F4DAF275C5
:02003300A0FF2C
:1B22D40020F71130F6138883A88220F509F6A8837583002280FEF280F5F02209
:1D22EF00E5828535F0A4C582C0F08536F0A4D0F025F0C5838535F0A42583F583222A
:20003B007800E84400600A790075A000E4F309D8FC7874E84401600C7902900000E4F0A34E
:04005B00D8FCD9FAFA
:0D000600758138122360E58260030200035B
:1C230C0020F71430F6148883A88220F507E6A88375830022E280F7E49322E022E0
:20232800C2D5E58330E70DD2D5E4C39582F582E49583F583E53630E70DB2D5E4C39535F5F6
:1823480035E49536F5361222AB30D50BE4C39582F582E49583F58322B4
:042360007582002260
:00000001FF
